:020000040800F2
:10000000481500209D010008050B0008A90A0008FA
:10001000010B00080D07000815150008000000007E
:10002000000000000000000000000000D50C0008E7
:100030001107000800000000B3010008B501000826
:10004000B7010008B7010008B7010008B7010008B0
:10005000B7010008B7010008B7010008B7010008A0
:10006000B7010008B7010008B7010008B701000890
:10007000B7010008B7010008B7010008B701000880
:10008000B7010008B7010008B7010008B701000870
:10009000B7010008B7010008B7010008B701000860
:1000A000B7010008B7010008B7010008B701000850
:1000B000B7010008B7010008B7010008B701000840
:1000C000B7010008B7010008B7010008B701000830
:1000D000B7010008E9100008B7010008B7010008DF
:1000E000B7010008B7010008B7010008B701000810
:1000F000B7010008B7010008B7010008B701000800
:10010000B7010008B7010008B7010008B7010008EF
:10011000B7010008B7010008B7010008B7010008DF
:10012000B7010008B7010008B7010008B7010008CF
:10013000B7010008B7010008B7010008B7010008BF
:10014000B7010008B7010008B7010008B7010008AF
:10015000B7010008B7010008B7010008B70100089F
:10016000B7010008B7010008B7010008B70100088F
:10017000B7010008B7010008B7010008B70100087F
:10018000B7010008B7010008DFF80CD000F01EFA34
:1001900000480047A1200008481500200648804775
:1001A00006480047FEE7FEE7FEE7FEE7FEE7FEE75C
:1001B000FEE7FEE7FEE7FEE7811000088901000880
:1001C000421C10F8011B0029FBD1801A704730B582
:1001D0000B46014600202022012409E021FA02F505
:1001E0009D4205D303FA02F5491B04FA02F528449F
:1001F000151EA2F10102F1DC30BD2DE9F05F0546CC
:10020000002092469B4688460646814640241BE0D5
:10021000284641464746224600F0F9F953465A46D9
:10022000C01A914110D311461846224600F0E0F959
:100230002D1A67EB01084F4622460120002100F0ED
:10024000D7F917EB00094E41201EA4F10104DFDCB1
:10025000484631462A464346BDE8F09F2DE9FE4F09
:10026000804681EA0300C00F0C46009021F0004157
:1002700023F00045B8EB0200A94105D240462146D3
:1002800090461C460B46024623F00040104347D0E0
:10029000270DC7F30A00C3F30A510290401A0190D8
:1002A00040286BDAC3F3130040F4801B0098924699
:1002B00020B10023D2EB030A63EB0B0B01985946E4
:1002C000C0F14002504600F093F906460D465046F4
:1002D0005946019A00F0ABF910EB08006141002487
:1002E00087EA115284EAE7731A4340D0009A62B356
:1002F000019A012A4FEA075215DC001B61EB02014B
:100300004FF0004202EA0752CDE90042001C41F5DD
:10031000801132462B4600F0ABF903B0BDE8F08FF8
:1003200040462146F9E7001B61EB0201001C41F544
:10033000801300185B412018A2F5001747EB03015A
:1003400040EAD570B6196D4111E06D084FEA3606E6
:1003500045EAC0754FEA0752001B61EB0201001C21
:1003600041F5801149084FEA3000001951413246E9
:100370002B4603B0BDE8F04F00F06BB900980122A6
:1003800040000023D0EB020263EBE07300982146AB
:100390004FEAE074B8EB000061EB0401E9E783F099
:1003A00000435BE781F0004158E72DE9FE4F81EA09
:1003B000030404F0004421F0004100944FF0000BCE
:1003C00023F0004350EA01045ED052EA03045BD0FC
:1003D000C3F30A54C1F30A552C44A4F2F334019434
:1003E000A0FB0254C1F3130141F48011C3F31303C2
:1003F00043F4801301FB024400FB034E840A970A76
:1004000044EA815447EA8357A4FB076802958D0AA2
:1004100005FB07854FEA932C04FB0C542705029D2E
:100420004FEA065847EA1637B5EB08056EEB070C9E
:10043000870E920E47EA811742EA8312A7FB020158
:10044000B6EB0B0164EB00042B0D43EA0C335E1892
:1004500044EB1C50DA465146E7FB0201C5F3130496
:100460004FEA0B3343EA14534FEA0432019C43EA48
:100470000603A4F10C040294009CCDE900B400F042
:10048000F7F803B0BDE8F08F00200146F9E72DE949
:10049000F04D81EA030404F0004B21F000451446BE
:1004A0004FF0000A23F0004150EA050220D054EA40
:1004B00001021DD0C5F30A570246C5F31303C1F369
:1004C0001300C1F30A5640F4801543F48013A7EBE0
:1004D0000608101BD64608F2FD3873EB050002D360
:1004E00008F1010801E092185B41B8F1000F03DA4E
:1004F00000200146BDE8F08D00204FF48011064633
:1005000084460EE0171B73EB050705D3121B63EB44
:10051000050306434CEA010C49084FEA30009218E3
:100520005B4150EA0107EDD152EA030012D082EAA2
:10053000040083EA0501084305D0101BAB4106D235
:100540000122002306E000224FF0004302E06FF09A
:10055000010253101AEB06004CEB085110EB0A0095
:1005600041EB0B01BDE8F04D00F073B8C1F30A5246
:10057000C1F3130140F2FF3341F480119A4202DAD1
:1005800000200146704740F233439A42A2F23342C0
:1005900002DC524200F03BB800F02AB830B5041E2D
:1005A00071F1000404DB4FF00044404264EB0101B0
:1005B000141E73F1000405DB1C464FF00043524249
:1005C00063EB0403994208BF904230BD064C074DCF
:1005D00006E0E06840F0010394E807009847103413
:1005E000AC42F6D3FFF7D4FDB4210008D4210008B3
:1005F000202A04DB203A00FA02F1002070479140E3
:10060000C2F1200320FA03F3194390407047202AD7
:1006100004DB203A21FA02F00021704721FA02F3AC
:10062000D040C2F120029140084319467047202A69
:1006300006DBCB17203A41FA02F043EAE07306E00A
:1006400041FA02F3D040C2F120029140084319461A
:10065000704710B5141E73F1000408DA401C41F114
:10066000000192185B411A4301D120F0010010BD36
:100670002DE9F04D92469B4611B1B1FA81F202E0AC
:10068000B0FA80F220329046FFF7B2FF04460F46E0
:1006900040EA0A0041EA0B0153465A46084313D088
:1006A000114653EA010019D0C8F140025046FFF745
:1006B000AEFF05460E46504659464246FFF798FFA4
:1006C000084305D0012004E020463946BDE8F08DFE
:1006D0000020054346EAE0762C4337430A98630539
:1006E000E40AA0EB08000022FD0A44EA47540A305D
:1006F00002D500200146E9E7010510196941DDE94D
:10070000084500196941BDE8F04DA2E700BFFEE7CA
:10071000704710B5044603E04FF47A7000F005F816
:10072000201EA4F10104F7D110BD002106E00A212A
:1007300000BF0A1EA1F1010399B2FAD1021EA0F175
:10074000010398B2F3D170472DE9F04705460E46F4
:1007500000F0D4F8F32000F02BF8284600F062F9FE
:100760000746A819A0F10108404600F05BF9814650
:100770003C460EE00221204600F020F8092807D070
:1007800000F08AF806A000F09DF90020BDE8F0878F
:10079000641C4C45EED900F07FF80120F6E700001C
:1007A0006572617365206661696C65642100000093
:1007B00001490860704700000C3C024070B50446D7
:1007C0000A460026092502B909E0012A01D11602CC
:1007D00005E0022A01D1160201E04FF4407600F054
:1007E0009FF80546092D28D11548006820F440706F
:1007F00013490860084600683043086008460068EE
:1008000020F0F80008600846006844F00201084340
:100810000B4908600846006840F48030086000F02A
:100820007FF805460648006820F002000449086089
:100830000846006820F0F8000860284670BD0000F7
:10084000103C024009201349096801F48031B1F5D8
:10085000803F01D101201CE00E49096801F0100120
:1008600009B1062015E00B49096801F4807109B14E
:1008700002200EE00749096801F0E00109B10720F4
:1008800007E00449096801F0020109B1082000E00D
:10089000092070470C3C02400348006840F00040CB
:1008A0000149086070470000103C024030B5024624
:1008B0000C46092500F034F80546092D19D10E48DB
:1008C000006820F440700C4908600846006840F455
:1008D000007008600846006840F00100086014607D
:1008E00000F01EF805460448006820F001000249A7
:1008F0000860284630BD0000103C024005480068F2
:1009000000F0004028B1044802490C39086003484F
:1009100008607047103C024023016745AB89EFCD6A
:1009200008B509200090FFF78DFF009002E0FFF767
:1009300089FF00909DF800000128F8D09DF8000084
:1009400008BDF0B50A4600210023002400BF3DE0A9
:10095000012505FA01F3156805EA03049C4234D128
:1009600005684F000326BE40B543056015794E006B
:10097000B5400668354305601579012D02D015791B
:10098000022D16D185684F000326BE40B543856011
:1009900055794E00B5408668354385604568012627
:1009A0008E40B5434560456896798E40B6B2354372
:1009B0004560C5684F000326BE40B543C560D57984
:1009C0004E00B540C6683543C560491C1029BFD3E9
:1009D000F0BDF0B5002300244D07ED0E02FA05F33B
:1009E000CE1000F1200555F826504E07F70E0F26C1
:1009F000BE40B543CF1000F1200646F82750CE1078
:100A000000F1200555F8265045EA0304CE1000F108
:100A1000200545F82640F0BD0148008800127047C7
:100A20002600002001461548814201D2002070476F
:100A30001348814201D20820F9E71248814201D2CD
:100A40001020F4E71048814201D21820EFE70F4848
:100A5000814201D22020EAE70D48814201D22820BC
:100A6000E5E70C48814201D23020E0E70A488142A4
:100A700001D23820DBE73820D9E700000040000829
:100A80000080000800C00008000001080000020803
:100A9000000004080000060800000808014800786B
:100AA000704700002600002000BFFEE770B5044C30
:100AB000206880F3088800BF6568A84770BD000003
:100AC000004000080FB438B505A800904FF48071BD
:100AD0000A48009B049A00F0F5FD002000900748AA
:100AE000FFF76EFB04462146042000F005F9034899
:100AF00000F0C0F938BC5DF814FB00004410002081
:100B000000BFFEE77047000070B5002100230F22F0
:100B1000C4781CB3174C246804F4E064C4F5E064A2
:100B2000C4F30721C1F10404E3B20A4144789C40B4
:100B3000E1B28478144021430C07210E0E4C057855
:100B40006155047804F01F050124AC4005786D114F
:100B5000AD0005F1E025C5F8004109E0047804F096
:100B60001F050124AC40054D0678761145F8264056
:100B700070BD00000CED00E000E400E080E100E06A
:100B800002490143024A1160704700000000FA0563
:100B90000CED00E029B1064A12680243044B1A60CA
:100BA00004E0034A12688243014B1A607047000058
:100BB0003038024029B1064A12680243044B1A60D9
:100BC00004E0034A12688243014B1A607047000038
:100BD00044380240F0B500210022002402250026FE
:100BE0000223324F3F6807F00C0121B1042905D0E0
:100BF000082937D105E02E4F076036E02D4F0760FA
:100C000033E02A4F3F1F3F68C7F38056274F3F1FEF
:100C10003F6807F03F036EB1264FB7FBF3F7DFF8ED
:100C20008CC0ACF1040CDCF800C0CCF3881C07FBD2
:100C30000CF40CE01E4FB7FBF3F7DFF870C0ACF11B
:100C4000040CDCF800C0CCF3881C07FB0CF4174F35
:100C50003F1F3F68C7F301477F1C7D00B4FBF5F7DA
:100C6000076002E0124F076000BF00BF0F4F3F68F0
:100C700007F0F0010909104F7A5C0768D740476018
:100C80000A4F3F6807F4E051890A0B4F7A5C4768C6
:100C9000D7408760054F3F6807F46041490B064F16
:100CA0007A5C4768D740C760F0BD00000838024052
:100CB0000024F40000127A000000002010B5034662
:100CC000002004E053F8204041F82040401C9042AE
:100CD000F8DB10BD7047000010B50821022000F0BD
:100CE0000BF8082101A000F0ABF810BD31326A64A6
:100CF000617364780000000070B505460C46064834
:100D000005710020044948718871CC71082102489E
:100D100000F096F870BD00001C00002000B587B000
:100D200001211020FFF746FF01210220FFF732FFCB
:100D3000072211463648FFF74CFE072206213448A9
:100D4000FFF747FE02208DF8180000208DF81A00EA
:100D500001208DF81B0002208DF8190080200590DD
:100D600005A92B48FFF7EDFD4020059001208DF8E7
:100D70001B0005A92648FFF7E4FD4FF4E130019080
:100D80000020ADF810000C20ADF80E000020ADF8EA
:100D90000C00ADF80A00ADF8080001A91D4800F0EC
:100DA000B3FA012240F225511A4800F087FA4FF4B5
:100DB000A060FFF7E5FE25208DF8000001208DF8EA
:100DC00003008DF801008DF802006846FFF79CFED5
:100DD0000121104800F02FFA002005E000210E4A02
:100DE00011540E4A1154401CB0F5006FF6DB002080
:100DF0000A49C1F80808C1F80408C1F80008064902
:100E0000C1F80808C1F80408C1F8000807B000BD1F
:100E10000004024000100140380800202C0000208F
:100E200010B504462146054800F0DDFA00BF8021D8
:100E3000024800F00CFA0028F9D010BD0010014063
:100E40002DE9F04104460D46264600270CE016F831
:100E5000011B074800F0C7FA00BF8021044800F0DA
:100E6000F6F90028F9D07F1CAF42F0D3BDE8F0813D
:100E70000010014070B50446002503E0605DFFF7F7
:100E8000CFFF6D1C605D0028F8D170BD10B502E089
:100E90006420FFF73EFC024800780028F8D010BD1F
:100EA000100000200CB5002001900090334800682D
:100EB00040F480303149086000BF3048006800F4D9
:100EC000003000900198401C0190009818B90198DA
:100ED000B0F5A04FF1D12948006800F4003010B1FE
:100EE0000120009001E0002000900098012844D1EA
:100EF00022484030006840F080502049403108606E
:100F00001F48006840F440401D4908601B480830F5
:100F100000681A49083108600846006808600846F9
:100F2000006840F4805008601648091F0860081FD8
:100F3000006840F08070091F086000BF0F4800681B
:100F400000F000700028F9D040F202700E490860ED
:100F50000A480830006820F003000849083108609A
:100F60000846006840F00200086000BF03480830EF
:100F7000006800F00C000828F8D10CBD00380240D1
:100F80000070004008544107003C024010B5FFF7D4
:100F9000A3FE00F0C1FA14480088A0F52A40AA3840
:100FA00040B1A0F5AA40553800280ED10FA0FFF798
:100FB00089FD10E014A0FFF785FD00F019FA00F09C
:100FC0002DFB18A0FFF77EFD05E0074801881CA057
:100FD000FFF778FD10BD00BF1FA0FFF773FDFFF7FF
:100FE00065FD00BFF6E70000240000205B53544D70
:100FF00033325D203A204E6F726D616C20737461E4
:1010000072742E2E2E0D0A005B53544D33325D2028
:101010003A205374617274207570646174652E2E69
:101020002E0D0A005B53544D33325D203A2055702B
:101030006461746520636F6D706C6574650D0A0082
:101040005B53544D33325D203A204552524F523A51
:1010500020307825580D0A005B53544D33325D2003
:101060003A205374617274696E67206170706C69A4
:10107000636174696F6E2E2E2E0D0A0D0A0000003A
:1010800010B51548006840F4700013490860134813
:10109000006840F001001149086000200F49083144
:1010A00008600E4800680E4908400C4908600D4869
:1010B000091D0860081F006820F48020091F0860CF
:1010C000002006490C310860FFF7ECFE4FF000608D
:1010D00001498039086010BD88ED00E00038024009
:1010E000FFFFF6FE1030002410B540F225513548C0
:1010F00000F0BAF8012864D1324800F06FF9C4B2A8
:101100003148007850B90A2C08D1304800780428BA
:1011100004D02F480078401C2D4908702B480078D7
:10112000052846D2DFE800F0030F243A3F002848A4
:101130000078062805D100F079FF012023490870C6
:1011400000E037E000BF2348007828B922A0FFF76D
:1011500091FE01201F4908701D480078032805D121
:1011600002201A49087000F061FF00E022E000BF91
:101170001848007828B901201649087020A0FFF708
:1011800079FE13480078032807D100F04FFF0320B1
:101190000E49087001200C4908700BE01C492046DC
:1011A00000F05AFF06E01B480078401C19490870FF
:1011B00000E000BF00BF40F22551024800F02CF8CB
:1011C00000BF10BD00100140100000201B000020D7
:1011D000180000201A00002041542B43495053545A
:1011E0004152543D5443502C34372E3130382E3236
:1011F00032342E37332C393030300D0A00000000E5
:1012000041542B43495053454E440D0A0000000001
:10121000380800201900002010B50022002340F6F5
:101220006A14A14200D100BF0A1201249440A3B263
:10123000DC43048010BD21B1828942F400528281D6
:1012400004E082894DF6FF731A408281704702469E
:101250000020B1F5007F00D100BF13880B400BB117
:10126000012000E00020704770B5024600240023F2
:101270000025002040F66A16B14200D100BFC1F33C
:10128000421501F01F03012606FA03F3012D02D1D6
:101290009689334006E0022D02D1168A334001E0E0
:1012A000968A33400C12012606FA04F4168834405C
:1012B00013B10CB1012000E0002070BDF0B5034671
:1012C000002400260025002040F66A17B94200D10C
:1012D00000BF1846C1F3421401F01F06012707FAA8
:1012E00006F5012C01D10C3004E0022C01D11030A4
:1012F00000E014301AB107682F43076002E0076866
:10130000AF430760F0BD00002DE9FF4705460E46DC
:101310000024A14600BFA046B08900B100BF2C8ABE
:1013200024F44054F08804432C82AC8941F20C60D0
:101330008443B08831890843718908430443AC81F0
:10134000AC8A24F44074B0890443AC826846FFF749
:1013500041FC2048854202D01F48854202D1DDF879
:101360000C9001E0DDF80890A88900F4004040B13D
:1013700009EBC90000EB091031684900B0FBF1F737
:1013800007E009EBC90000EB091031688900B0FBE8
:10139000F1F76420B7FBF0F004012009642101FBA0
:1013A0001078A88900F4004040B1322000EBC8005A
:1013B000B0FBF1F000F00700044308E0322000EB3E
:1013C00008106421B0FBF1F000F00F0004432C8101
:1013D000BDE8FF87001001400014014001468888E5
:1013E000C0F308007047C1F3080282807047000014
:1013F00030B5ADF5037D224800684EF66021884285
:1014000002D900201E4908601EA0FFF75BFB1C48A4
:1014100001682648FFF798F925A0FFF753FB002441
:1014200000252DA0FFF74EFB1FE015480068B0F522
:10143000007F02D34FF4007001E0114800680546B8
:1014400000210120FFF758FC2946684600F0F8FD0E
:10145000AA08164901EB4420694600F005F9641C0E
:1014600007480068401B06490860054800680028D6
:10147000DBD121A0FFF726FB0DF5037D30BD000079
:10148000280000205B53544D33325D203A205374C2
:101490006172742065726173652064657320666C87
:1014A0006173682E2E2E2E2E2E0D0A00004000088D
:1014B0005B53544D33325D203A2045726173652091
:1014C00064657320666C61736820646F776E2E2E7E
:1014D0002E2E2E2E0D0A00005B53544D33325D200C
:1014E0003A20537461727420636F70792E2E2E2E01
:1014F0002E2E0D0A000000005B53544D33325D2048
:101500003A20436F707920646F776E2E2E2E2E2E28
:101510002E0D0A0000BFFEE770B586B000200590D2
:10152000012205A92A48FFF7C9FB0598000C2949A3
:10153000088029490598088000210320FFF7DCFB7B
:10154000062103A800F07CFD9DF80D009DF80C100D
:1015500040EA01249DF80E0000069DF80F1040EAB5
:1015600001409DF8101040EA01209DF81110084339
:101570001A49086021461AA0FFF7A4FA1648008805
:10158000844217D0FFF78AFA0546FFF745FA064668
:1015900012480168E0B223122A46CDE90001314623
:1015A0001548FFF78FFA4AF6AA200A4908800A4828
:1015B00004800AE008480278008801120FA0FFF7B3
:1015C00081FA4FF6FF700349088006B070BD000035
:1015D000FCFF07082400002026000020280000202F
:1015E0003E206E65772076657273696F6E20697331
:1015F0002025640A000000006C2100083E2044659C
:10160000766963652056657273696F6E2069732011
:10161000562568752E2568750D0A000000B58BB03B
:10162000092202A90D48FFF749FB0A210B48FFF7E1
:101630008BF80B4800880B49098840EA014001906B
:10164000092202A9054800F00FF8012201A9034868
:10165000243000F009F80BB000BD0000D8FF0708E7
:1016600026000020240000202DE9F04105460E460A
:101670001746FFF743F9F320FFF79AF800240DE02F
:1016800056F82410042202FB0450FFF70FF9092832
:1016900003D006A0FFF716FA02E0641CBC42EFDBA1
:1016A00000BFFFF7F9F8BDE8F08100003E20466C6E
:1016B000617373205772697465204661696C656453
:1016C0000D0A00007CB5044600201D461646002980
:1016D0000BD0491ECDE90041044B6A4629463046ED
:1016E00000F002F9009A002111707CBD172000085B
:1016F0002DE9F04104460F46154602E06420FFF74D
:1017000008F8D4F80008A842F8D300260FE0D4F86F
:101710000418481CC4F80408605CB855D4F80408E0
:10172000B0F5006F02D10020C4F80408761CAE4268
:10173000EDD3D4F80008401BC4F800080020B855C9
:101740002846BDE8F08102E008C8121F08C1002A3F
:10175000FAD170477047002001E001C1121F002A32
:10176000FBD170472DE9FF5F82B00021DDE9043035
:10177000020DDDF840B0034318D044F61050A2F239
:10178000FF3242431514119801281FD0A5EB0B001E
:10179000401C5FEA000A4FF000064E4FDFF8389118
:1017A000B046504615D5CAF1000413E01198012443
:1017B0004AA3012801D16FEA0B010298119AC0E9EE
:1017C0000031C0E9024206B0BDE8F09FCBF1000055
:1017D000DFE704460021404A491842EB0450CDE9B6
:1017E000001012E0E00707D032463B46404649462B
:1017F000FEF7DBFD8046894632463B4610461946D9
:10180000FEF7D3FD06460F466410002CEAD1DDE951
:101810000401DDE90023BAF1000F06DAFEF7C5FD89
:1018200042464B46FEF7C1FD05E0FEF730FE42465C
:101830004B46FEF72CFE04460E460022284BFEF7D0
:10184000ADFE03D84FF0FF30014607E00022254BE4
:1018500020463146FEF702FDFEF788FE102409E01F
:10186000002C0ADB0A220023FEF7C7FC039B303260
:101870001A55641E50EA0102F2D1641C039AC4F1A5
:1018800011031444119A012A03D0012208430DD1F7
:101890000AE0084304D000204FF0110B119072E7CA
:1018A000A3EB0B056D1E0DE05B4504DD4FF0000260
:1018B00005F1010504E003DA4FF00002A5F101058E
:1018C000002AECD002981199C0E90231C0E9004524
:1018D00079E70000000014400000F03F30000000F5
:1018E0000000F0430000E03F2DE9FF4F95B09B461C
:1018F0008946064600250FE2252877D10024274691
:10190000F84A0121059400E0044316F8013F203B0A
:1019100001FA03F01042F7D130782A2811D06FF085
:101920002F033078A0F13002092A16D8059A44F026
:10193000020402EB820203EB42021044761C059083
:10194000EFE759F8042B0592002A03DA504244F4D9
:101950000054059044F00204761C30782E2816D1ED
:1019600016F8010F44F004042A280DD06FF02F025E
:101970003078A0F13003092B09D807EB870302EB7D
:101980004303C718761CF3E759F8047B761C3078BC
:101990006C280FD006DC4C2817D068280DD06A2898
:1019A00014D104E0742810D07A280FD10DE044F44B
:1019B00000140AE044F4801401E044F44014727806
:1019C000824202D104F58014761C761C3078662899
:1019D0000BD013DC582877D009DC002875D04528B7
:1019E000F6D04628F4D047281AD19DE118E06328A4
:1019F00035D0642879D0652812D195E1702873D04C
:101A000008DC6728F1D069286FD06E280DD06F28C8
:101A100006D1B5E073282CD0752875D0782874D0FD
:101A20005A46179990476D1C75E1C4F3025002287D
:101A300009D003280DD0D9F8001004280DD00D606E
:101A400009F1040967E1D9F80010EA17C1E9005269
:101A5000F6E7D9F800100D80F2E70D70F0E719F8FD
:101A6000041B8DF8001000208DF80100EA460120CB
:101A700003E059F804AB4FF0FF3061074FF000016D
:101A800002D40DE008F101018846B9420FDA804521
:101A9000F8DB1AF808100029F4D108E008F1010178
:101AA00088468142FADB1AF808100029F6D1059819
:101AB0005B46A0EB080721463846179A00F094FAD7
:101AC000284400EB080507E04DE029E10DE01AF895
:101AD000010B5A4617999047B8F10108F7D25B46B7
:101AE00021463846179A13E142E00A220092C4F3D5
:101AF00002524FF0000A022A08D059F804CB032AF8
:101B00004FEAEC710AD00DE029E02AE009F1070163
:101B100021F00702F2E802C1914609E00FFA8CFCBD
:101B20004FEAEC71042A03D14FFA8CFC4FEAEC71B6
:101B3000002907DA0A460021DCF1000C61EB020102
:101B40002D2202E0220504D52B228DF8042001224B
:101B500003E0E20701D02022F7E7904659E00A218E
:101B600002E010220DE010214FF0000A00910BE07E
:101B700010224FF0000A44F004040827009203E00A
:101B800008224FF0000A0092C4F30252022A05D044
:101B900059F804CB0021032A08D009E009F1070114
:101BA00021F00702F2E802C1914605E01FFA8CFC21
:101BB000042A01D10CF0FF0C4FF00008220728D5B1
:101BC000702806D0009B83F0100353EA0A0305D067
:101BD0000EE040228DF80420012208E05CEA0102B8
:101BE00006D030228DF804208DF8050002229046A0
:101BF000009B83F0080353EA0A030AD15CEA01025E
:101C000001D1620705D530228DF804204FF001087C
:101C10007F1E582804D034A003900EA802900DE037
:101C200036A0F9E753466046009AFEF7E6FA844686
:101C30000398825C0298401E029002705CEA0100E8
:101C4000F0D1029806A9081A00F1200A600702D50F
:101C500024F4803400E00127574502DDA7EB0A0099
:101C600000E0002000EB0A01009005984144401A72
:101C70000590E00306D45B462146179A059800F0CC
:101C8000B3F90544002706E001A85A46C05D17993C
:101C900090476D1C7F1C4745F6DBE0030CD55B4687
:101CA0002146179A059800F09FF9054404E030207A
:101CB0005A46179990476D1C0099481E00900029BC
:101CC000F5DC08E0029802995A460078491C029116
:101CD000179990476D1CBAF10001AAF1010AF1DCD5
:101CE00065E10000092801003031323334353637E0
:101CF0003839616263646566000000003031323358
:101D000034353637383941424344454600000000F7
:101D100000F058F90544761C307800287FF4ECADCB
:101D200019B02846BDE8F08F620700D4062709F1F4
:101D3000070222F0070CFCE80223E14603F000480A
:101D40005FEA080C02D00FF2702C0DE05FEA045C31
:101D500002D50FF2682C07E05FEAC47C02D00FF2D4
:101D6000602C01E0AFF2700C4FF0FF3823F000431D
:101D7000CDF850C065280CD006DC452809D046288F
:101D80001DD047283DD13DE0662818D067287ED178
:101D900038E00021112F01DB112000E0781CCDE993
:101DA000000106A90EA8FFF7DDFCDDE90F010E9A80
:101DB00003910021009207F1010A04914DE04FF0D8
:101DC00000400097CDE9011006A90EA8FFF7CAFC54
:101DD000DDE90F0203920E9B11990022DDF80CA0A1
:101DE0000093049211B9791C00EB010AB7EB0A00C9
:101DF00004D4C0F1FF3007F1010A0490AAEB0700F8
:101E0000019044E0012F00DA01270021112F01DDAC
:101E1000112000E03846CDE9000106A90EA8FFF721
:101E2000A1FCDDE90F010E9A0391002104910092BB
:101E3000BA4621070CD40399514500DA8A46BAF113
:101E4000010F05DD009AAAF10101515C302908D08B
:101E5000B84202DA10F1040F06DA0121CDE90110CF
:101E600015E0AAF10101E9E7002805DC0499014425
:101E70000491AAEB000102E0411C514500DD8A46B5
:101E80000499401A401C01904FF000400290200736
:101E900004D40198504501DBCDF8048000208DF872
:101EA0004F0002980DF14F07B0F1004F25D02B20C5
:101EB0000E9002984FF0020800280CDA404202907F
:101EC0002D200E9007E00A210298FEF780F93031AC
:101ED000029007F8011DB8F10001A8F10108F2DC39
:101EE00002980028EFD1791E0E980870307800F023
:101EF000200040F0450007F8020D12A8C01B00F1B9
:101F000007081498007800B1012000EB0A0101983D
:101F100001EBE07105984144401A401E0590E00332
:101F200006D45B462146179A059800F05DF80544F3
:101F30001498007818B15A46179990476D1CE00321
:101F400024D55B462146179A059800F04DF80544C4
:101F50001CE00498002807DBDDE90301884203DD6B
:101F60000098405C179901E0179930205A46904735
:101F7000049805F10105401C04900198401E019051
:101F800004D12E205A46179990476D1CBAF10001D2
:101F9000AAF1010ADDDC05E017F8010B5A46179992
:101FA00090476D1CB8F10001A8F10108F4DC5B4614
:101FB0002146179A0598ABE62D0000002B00000083
:101FC000200000002DE9F041044600251E4617467A
:101FD000880404D405E039462020B0476D1C641EF7
:101FE000F9D52846BDE8F0812DE9F04104460025E9
:101FF0001E469046C80301D5302700E020278804FC
:1020000004D505E041463846B0476D1C641EF9D53D
:102010002846BDE8F0814A68002A06D00A68531CA9
:102020000B6010704868401E4860704700200249ED
:102030000870024908707047180000201A0000203C
:1020400070B504460D462A4621460248FFF750FB6C
:1020500070BD00003808002040F2FF73D1F8082856
:102060009A4206D1D1F8082888540022C1F80828DD
:1020700005E0D1F808385A1CC1F80828C854D1F82E
:102080000028B2F5006F05D0D1F80028521CC1F825
:10209000002803E0D1F80828C1F8042870470000A0
:1020A0004FF000601A49086062B6FEF737FE19A0CB
:1020B000FEF7E0FE4FF4FA70FEF72BFB0420164902
:1020C000087016A0FEF7D6FE4FF4FA70FEF721FB5B
:1020D000164800780A2809DD02200F4908700120FF
:1020E0001349087013A0FEF7C5FE05E000200A4959
:1020F000087014A0FEF7BEFEFEF7C8FEFEF746FF0E
:1021000005E013A0FEF7B6FE6420FEF702FBF8E739
:1021100008ED00E02B2B2B001B00002041542B432B
:10212000495053544154453F0D0A00001900002006
:102130001A00002041542B43495053454E440D0A88
:102140000000000041542B5253540D0A00000000BF
:10215000426F6F746C6F6164657220737461727426
:102160006564206661696C65640D0A003E204F6CF1
:10217000642056657273696F6E20697320562564FA
:102180002E25642C204E65772056657273696F6E1C
:1021900020697320562568752E2568752C204669A0
:1021A0006C65204C656E6774682069732025640D2A
:1021B0000A000000D4210008000000202C000000CC
:1021C00046170008002200082C0000201C15000003
:1021D0005617000800000000010203040102030476
:1021E00006070809000000000000000000000000D1
:1021F000FEFECDCD00000000000000000000000049
:040000050800018965
:00000001FF
